{
  "transactions": [
    {
      "hash": "0xf235add60a57d9d3f525ea43bc8a0867ed39b6ca0658de2ced496f264b988ed0",
      "transactionType": "CALL",
      "contractName": null,
      "contractAddress": "0x420ca0f9b9b604ce0fd9c18ef134c705e5fa3430",
      "function": "transfer(address,uint256)",
      "arguments": [
        "0xe0Be6FD8362E4E76f55EC4d6736DA473d99713f8",
        "5000000000000000000"
      ],
      "transaction": {
        "from": "0xbe6853b544a326cd4faf9e4ba3d4e400e6c3dad9",
        "to": "0x420ca0f9b9b604ce0fd9c18ef134c705e5fa3430",
        "gas": "0x17d8b",
        "value": "0x0",
        "input": "0xa9059cbb000000000000000000000000e0be6fd8362e4e76f55ec4d6736da473d99713f80000000000000000000000000000000000000000000000004563918244f40000",
        "nonce": "0x1",
        "chainId": "0x64"
      },
      "additionalContracts": [],
      "isFixedGasLimit": false
    },
    {
      "hash": "0x5c15f635501986c6d3ef676d5cf1f5f74ace124b0088b44620aa80bdb387fe92",
      "transactionType": "CALL",
      "contractName": null,
      "contractAddress": "0xa6b71e26c5e0845f74c812102ca7114b6a896ab2",
      "function": "createProxyWithNonce(address,bytes,uint256)",
      "arguments": [
        "0x3E5c63644E683549055b9Be8653de26E0B4CD36E",
        "0xb63e800d000000000000000000000000000000000000000000000000000000000000010000000000000000000000000000000000000000000000000000000000000000010000000000000000000000003c5bf6bbaed46ce0d4f4bd512f4af7e5435207ad00000000000000000000000000000000000000000000000000000000000001400000000000000000000000002f55e8b20d0b9fefa187aa7d00b6cbe563605bf50000000000000000000000000000000000000000000000000000000000000000000000000000000000000000000000000000000000000000000000000000000000000000000000000000000000000000000000000000000000000000000000000000000000000000000000000000000000000000000000000000000000000001000000000000000000000000be6853b544a326cd4faf9e4ba3d4e400e6c3dad90000000000000000000000000000000000000000000000000000000000000224405b6c41000000000000000000000000420ca0f9b9b604ce0fd9c18ef134c705e5fa34300000000000000000000000000000000000000000000000004563918244f4000000000000000000000000000000000000000000000000000000000000000000600000000000000000000000006cf1e9ca41f7611def408122793c358a3d11e5a5000000000000000000000000000000000000000000000000000000000000000000000000000000000000000000000000000000000000000000000000000000600000000000000000000000000000000000000000000000000000000000000140000000000000000000000000420ca0f9b9b604ce0fd9c18ef134c705e5fa34300000000000000000000000009c58bacc331c9aa871afd802db6379a98e80cedb000000000000000000000000be6853b544a326cd4faf9e4ba3d4e400e6c3dad900000000000000000000000000000000000000000000000022b1c8c1227a0000000000000000000000000000000000000000000000000000006a94d74f430000000000000000000000000000000000000000000000000000000000000000000000000000000000000000000000000000000000000000000000000000000000020000000000000000000000000000000000000000000000000000000000000e100000000000000000000000000000000000000000000000000000000000000000000000000000000000000000000000000000000000000000000000000000000000000000000000000000000000000000000000000000000000000000",
        "0"
      ],
      "transaction": {
        "from": "0xbe6853b544a326cd4faf9e4ba3d4e400e6c3dad9",
        "to": "0xa6b71e26c5e0845f74c812102ca7114b6a896ab2",
        "gas": "0x8582a",
        "value": "0x0",
        "input": "0x1688f0b90000000000000000000000003e5c63644e683549055b9be8653de26e0b4cd36e0000000000000000000000000000000000000000000000000000000000000060000000000000000000000000000000000000000000000000000000000000000000000000000000000000000000000000000000000000000000000000000003a4b63e800d000000000000000000000000000000000000000000000000000000000000010000000000000000000000000000000000000000000000000000000000000000010000000000000000000000003c5bf6bbaed46ce0d4f4bd512f4af7e5435207ad00000000000000000000000000000000000000000000000000000000000001400000000000000000000000002f55e8b20d0b9fefa187aa7d00b6cbe563605bf50000000000000000000000000000000000000000000000000000000000000000000000000000000000000000000000000000000000000000000000000000000000000000000000000000000000000000000000000000000000000000000000000000000000000000000000000000000000000000000000000000000000000001000000000000000000000000be6853b544a326cd4faf9e4ba3d4e400e6c3dad90000000000000000000000000000000000000000000000000000000000000224405b6c41000000000000000000000000420ca0f9b9b604ce0fd9c18ef134c705e5fa34300000000000000000000000000000000000000000000000004563918244f4000000000000000000000000000000000000000000000000000000000000000000600000000000000000000000006cf1e9ca41f7611def408122793c358a3d11e5a5000000000000000000000000000000000000000000000000000000000000000000000000000000000000000000000000000000000000000000000000000000600000000000000000000000000000000000000000000000000000000000000140000000000000000000000000420ca0f9b9b604ce0fd9c18ef134c705e5fa34300000000000000000000000009c58bacc331c9aa871afd802db6379a98e80cedb000000000000000000000000be6853b544a326cd4faf9e4ba3d4e400e6c3dad900000000000000000000000000000000000000000000000022b1c8c1227a0000000000000000000000000000000000000000000000000000006a94d74f430000000000000000000000000000000000000000000000000000000000000000000000000000000000000000000000000000000000000000000000000000000000020000000000000000000000000000000000000000000000000000000000000e10000000000000000000000000000000000000000000000000000000000000000000000000000000000000000000000000000000000000000000000000000000000000000000000000000000000000000000000000000000000000000000000000000000000000000000000000000000000000000000000000",
        "nonce": "0x2",
        "chainId": "0x64"
      },
      "additionalContracts": [
        {
          "transactionType": "CREATE2",
          "contractName": null,
          "address": "0xe0be6fd8362e4e76f55ec4d6736da473d99713f8",
          "initCode": "0x608060405234801561001057600080fd5b506040516101e63803806101e68339818101604052602081101561003357600080fd5b8101908080519060200190929190505050600073ffffffffffffffffffffffffffffffffffffffff168173ffffffffffffffffffffffffffffffffffffffff1614156100ca576040517f08c379a00000000000000000000000000000000000000000000000000000000081526004018080602001828103825260228152602001806101c46022913960400191505060405180910390fd5b806000806101000a81548173ffffffffffffffffffffffffffffffffffffffff021916908373ffffffffffffffffffffffffffffffffffffffff1602179055505060ab806101196000396000f3fe608060405273ffffffffffffffffffffffffffffffffffffffff600054167fa619486e0000000000000000000000000000000000000000000000000000000060003514156050578060005260206000f35b3660008037600080366000845af43d6000803e60008114156070573d6000fd5b3d6000f3fea2646970667358221220d1429297349653a4918076d650332de1a1068c5f3e07c5c82360c277770b955264736f6c63430007060033496e76616c69642073696e676c65746f6e20616464726573732070726f76696465640000000000000000000000003e5c63644e683549055b9be8653de26e0b4cd36e"
        }
      ],
      "isFixedGasLimit": false
    }
  ],
  "receipts": [
    {
      "status": "0x1",
      "cumulativeGasUsed": "0x32b03a",
      "logs": [
        {
          "address": "0xfe74a522768547be33a3ad40b999381d57f238a0",
          "topics": [
            "0x7421973e31248bda00bf2f04b80b46b34fc9e23ab57848234aed6cc5d437b6a8",
            "0x000000000000000000000000be6853b544a326cd4faf9e4ba3d4e400e6c3dad9",
            "0x000000000000000000000000e0be6fd8362e4e76f55ec4d6736da473d99713f8"
          ],
          "data": "0x0000000000000000000000000000000000000000000000004563918244f400000000000000000000000000000000000000000000000000000000000000000001",
          "blockHash": "0xf495cecd52157aaceb75171c9253a5466e9db0527f35670a9bdb8b6aa4820823",
          "blockNumber": "0x2c66dff",
          "blockTimestamp": "0x6a2430b4",
          "transactionHash": "0xf235add60a57d9d3f525ea43bc8a0867ed39b6ca0658de2ced496f264b988ed0",
          "transactionIndex": "0x16",
          "logIndex": "0x4e",
          "removed": false
        },
        {
          "address": "0x420ca0f9b9b604ce0fd9c18ef134c705e5fa3430",
          "topics": [
            "0xddf252ad1be2c89b69c2b068fc378daa952ba7f163c4a11628f55a4df523b3ef",
            "0x000000000000000000000000be6853b544a326cd4faf9e4ba3d4e400e6c3dad9",
            "0x000000000000000000000000e0be6fd8362e4e76f55ec4d6736da473d99713f8"
          ],
          "data": "0x0000000000000000000000000000000000000000000000004563918244f40000",
          "blockHash": "0xf495cecd52157aaceb75171c9253a5466e9db0527f35670a9bdb8b6aa4820823",
          "blockNumber": "0x2c66dff",
          "blockTimestamp": "0x6a2430b4",
          "transactionHash": "0xf235add60a57d9d3f525ea43bc8a0867ed39b6ca0658de2ced496f264b988ed0",
          "transactionIndex": "0x16",
          "logIndex": "0x4f",
          "removed": false
        }
      ],
      "logsBloom": "0x00000000000000000000000000000000000000000004000000000000010000000000000000000000004000000000080000000000000000000000000800000000000000000000000000000008000000000000000000000000000000000000000080100000000000000000000000000000000000000000000200010010000000000000000000000000000000000000000000000000000080000000000400000000000000000000000000000000000080000000000000000000000000000000000000000012000000000000002000000000000000000000000000000000000000000000000000000000000000000000000000000000000000000000080000000000",
      "type": "0x2",
      "transactionHash": "0xf235add60a57d9d3f525ea43bc8a0867ed39b6ca0658de2ced496f264b988ed0",
      "transactionIndex": "0x16",
      "blockHash": "0xf495cecd52157aaceb75171c9253a5466e9db0527f35670a9bdb8b6aa4820823",
      "blockNumber": "0x2c66dff",
      "gasUsed": "0x104e3",
      "effectiveGasPrice": "0xa",
      "blobGasUsed": "0x0",
      "from": "0xbe6853b544a326cd4faf9e4ba3d4e400e6c3dad9",
      "to": "0x420ca0f9b9b604ce0fd9c18ef134c705e5fa3430",
      "contractAddress": null
    },
    {
      "status": "0x1",
      "cumulativeGasUsed": "0x38bac6",
      "logs": [
        {
          "address": "0x2f55e8b20d0b9fefa187aa7d00b6cbe563605bf5",
          "topics": [
            "0xae938181ed4437a46f12ead84e69947e6d84a1113a49d9c0075d8d35c6ce273c",
            "0x000000000000000000000000e0be6fd8362e4e76f55ec4d6736da473d99713f8"
          ],
          "data": "0x8f05589c4b810bc2f706854508d66d447cd971f8354a4bb0b3471ceb0a466bc7000000000000000000000000fdafc9d1902f4e0b84f65f49f244b32b31013b74",
          "blockHash": "0xf495cecd52157aaceb75171c9253a5466e9db0527f35670a9bdb8b6aa4820823",
          "blockNumber": "0x2c66dff",
          "blockTimestamp": "0x6a2430b4",
          "transactionHash": "0x5c15f635501986c6d3ef676d5cf1f5f74ace124b0088b44620aa80bdb387fe92",
          "transactionIndex": "0x17",
          "logIndex": "0x50",
          "removed": false
        },
        {
          "address": "0x420ca0f9b9b604ce0fd9c18ef134c705e5fa3430",
          "topics": [
            "0x8c5be1e5ebec7d5bd14f71427d1e84f3dd0314c0f7b2291e5b200ac8c7c3b925",
            "0x000000000000000000000000e0be6fd8362e4e76f55ec4d6736da473d99713f8",
            "0x000000000000000000000000c92e8bdf79f0507f65a392b0ab4667716bfe0110"
          ],
          "data": "0x0000000000000000000000000000000000000000000000004563918244f40000",
          "blockHash": "0xf495cecd52157aaceb75171c9253a5466e9db0527f35670a9bdb8b6aa4820823",
          "blockNumber": "0x2c66dff",
          "blockTimestamp": "0x6a2430b4",
          "transactionHash": "0x5c15f635501986c6d3ef676d5cf1f5f74ace124b0088b44620aa80bdb387fe92",
          "transactionIndex": "0x17",
          "logIndex": "0x51",
          "removed": false
        },
        {
          "address": "0xfdafc9d1902f4e0b84f65f49f244b32b31013b74",
          "topics": [
            "0x2cceac5555b0ca45a3744ced542f54b56ad2eb45e521962372eef212a2cbf361",
            "0x000000000000000000000000e0be6fd8362e4e76f55ec4d6736da473d99713f8"
          ],
          "data": "0x00000000000000000000000000000000000000000000000000000000000000200000000000000000000000006cf1e9ca41f7611def408122793c358a3d11e5a5000000000000000000000000000000000000000000000000000000000000000000000000000000000000000000000000000000000000000000000000000000600000000000000000000000000000000000000000000000000000000000000140000000000000000000000000420ca0f9b9b604ce0fd9c18ef134c705e5fa34300000000000000000000000009c58bacc331c9aa871afd802db6379a98e80cedb000000000000000000000000be6853b544a326cd4faf9e4ba3d4e400e6c3dad900000000000000000000000000000000000000000000000022b1c8c1227a0000000000000000000000000000000000000000000000000000006a94d74f430000000000000000000000000000000000000000000000000000000000000000000000000000000000000000000000000000000000000000000000000000000000020000000000000000000000000000000000000000000000000000000000000e1000000000000000000000000000000000000000000000000000000000000000000000000000000000000000000000000000000000000000000000000000000000",
          "blockHash": "0xf495cecd52157aaceb75171c9253a5466e9db0527f35670a9bdb8b6aa4820823",
          "blockNumber": "0x2c66dff",
          "blockTimestamp": "0x6a2430b4",
          "transactionHash": "0x5c15f635501986c6d3ef676d5cf1f5f74ace124b0088b44620aa80bdb387fe92",
          "transactionIndex": "0x17",
          "logIndex": "0x52",
          "removed": false
        },
        {
          "address": "0xe0be6fd8362e4e76f55ec4d6736da473d99713f8",
          "topics": [
            "0xacdabb2bb61d3c73fa05494d5071bfce418946cd024632283b123a37dd8c4549",
            "0x000000000000000000000000e0be6fd8362e4e76f55ec4d6736da473d99713f8",
            "0x000000000000000000000000420ca0f9b9b604ce0fd9c18ef134c705e5fa3430"
          ],
          "data": "0xc1d471e305f578961e85a22b3a073ec48b21c2cdbc5d950a2ec3c9053caf9fd9",
          "blockHash": "0xf495cecd52157aaceb75171c9253a5466e9db0527f35670a9bdb8b6aa4820823",
          "blockNumber": "0x2c66dff",
          "blockTimestamp": "0x6a2430b4",
          "transactionHash": "0x5c15f635501986c6d3ef676d5cf1f5f74ace124b0088b44620aa80bdb387fe92",
          "transactionIndex": "0x17",
          "logIndex": "0x53",
          "removed": false
        },
        {
          "address": "0xe0be6fd8362e4e76f55ec4d6736da473d99713f8",
          "topics": [
            "0x141df868a6331af528e38c83b7aa03edc19be66e37ae67f9285bf4f8e3c6a1a8",
            "0x000000000000000000000000a6b71e26c5e0845f74c812102ca7114b6a896ab2"
          ],
          "data": "0x000000000000000000000000000000000000000000000000000000000000008000000000000000000000000000000000000000000000000000000000000000010000000000000000000000003c5bf6bbaed46ce0d4f4bd512f4af7e5435207ad0000000000000000000000002f55e8b20d0b9fefa187aa7d00b6cbe563605bf50000000000000000000000000000000000000000000000000000000000000001000000000000000000000000be6853b544a326cd4faf9e4ba3d4e400e6c3dad9",
          "blockHash": "0xf495cecd52157aaceb75171c9253a5466e9db0527f35670a9bdb8b6aa4820823",
          "blockNumber": "0x2c66dff",
          "blockTimestamp": "0x6a2430b4",
          "transactionHash": "0x5c15f635501986c6d3ef676d5cf1f5f74ace124b0088b44620aa80bdb387fe92",
          "transactionIndex": "0x17",
          "logIndex": "0x54",
          "removed": false
        },
        {
          "address": "0xa6b71e26c5e0845f74c812102ca7114b6a896ab2",
          "topics": [
            "0x4f51faf6c4561ff95f067657e43439f0f856d97c04d9ec9070a6199ad418e235"
          ],
          "data": "0x000000000000000000000000e0be6fd8362e4e76f55ec4d6736da473d99713f80000000000000000000000003e5c63644e683549055b9be8653de26e0b4cd36e",
          "blockHash": "0xf495cecd52157aaceb75171c9253a5466e9db0527f35670a9bdb8b6aa4820823",
          "blockNumber": "0x2c66dff",
          "blockTimestamp": "0x6a2430b4",
          "transactionHash": "0x5c15f635501986c6d3ef676d5cf1f5f74ace124b0088b44620aa80bdb387fe92",
          "transactionIndex": "0x17",
          "logIndex": "0x55",
          "removed": false
        }
      ],
      "logsBloom": "0x00000000000000000000001000000000000000400000000000000080010000000000000000400000000000020000000000000040000000008000000000200000000410000000000008000000000000000000000001040008000100200000000000000000000000000502000000000000000000000000000200010000000000000000000000000000000000008000000000000400000000000000000400000000020000000000000000000000002000000000000080100000000000200000000000000010000000000001002020001000000000000000000000000000000000000030090000004000000000400000000020000008800000100000000000000000",
      "type": "0x2",
      "transactionHash": "0x5c15f635501986c6d3ef676d5cf1f5f74ace124b0088b44620aa80bdb387fe92",
      "transactionIndex": "0x17",
      "blockHash": "0xf495cecd52157aaceb75171c9253a5466e9db0527f35670a9bdb8b6aa4820823",
      "blockNumber": "0x2c66dff",
      "gasUsed": "0x60a8c",
      "effectiveGasPrice": "0xa",
      "blobGasUsed": "0x0",
      "from": "0xbe6853b544a326cd4faf9e4ba3d4e400e6c3dad9",
      "to": "0xa6b71e26c5e0845f74c812102ca7114b6a896ab2",
      "contractAddress": null
    }
  ],
  "libraries": [],
  "pending": [],
  "returns": {},
  "timestamp": 1780756662344,
  "chain": 100,
  "commit": null
}