{
  "transactions": [
    {
      "hash": "0x01578f93e8647905f3789bb3613d9bd123707a24b40aabf6d2a32142ad128235",
      "transactionType": "CALL",
      "contractName": null,
      "contractAddress": "0x420ca0f9b9b604ce0fd9c18ef134c705e5fa3430",
      "function": "approve(address,uint256)",
      "arguments": [
        "0x00170D1ab75221a6aF1DFDC29ef7216e5382Ff56",
        "1000000000000000000"
      ],
      "transaction": {
        "from": "0xbe6853b544a326cd4faf9e4ba3d4e400e6c3dad9",
        "to": "0x420ca0f9b9b604ce0fd9c18ef134c705e5fa3430",
        "gas": "0x1256d",
        "value": "0x0",
        "input": "0x095ea7b300000000000000000000000000170d1ab75221a6af1dfdc29ef7216e5382ff560000000000000000000000000000000000000000000000000de0b6b3a7640000",
        "nonce": "0x9",
        "chainId": "0x64"
      },
      "additionalContracts": [],
      "isFixedGasLimit": false
    }
  ],
  "receipts": [
    {
      "status": "0x1",
      "cumulativeGasUsed": "0x5d46ff",
      "logs": [
        {
          "address": "0x420ca0f9b9b604ce0fd9c18ef134c705e5fa3430",
          "topics": [
            "0x8c5be1e5ebec7d5bd14f71427d1e84f3dd0314c0f7b2291e5b200ac8c7c3b925",
            "0x000000000000000000000000be6853b544a326cd4faf9e4ba3d4e400e6c3dad9",
            "0x00000000000000000000000000170d1ab75221a6af1dfdc29ef7216e5382ff56"
          ],
          "data": "0x0000000000000000000000000000000000000000000000000de0b6b3a7640000",
          "blockHash": "0x8e23e2f05e15454980079d109b1b120c8c4177e2af481c2bcc6616d7072ffead",
          "blockNumber": "0x2c67e36",
          "blockTimestamp": "0x6a248389",
          "transactionHash": "0x01578f93e8647905f3789bb3613d9bd123707a24b40aabf6d2a32142ad128235",
          "transactionIndex": "0x28",
          "logIndex": "0x95",
          "removed": false
        }
      ],
      "logsBloom": "0x00000000000000000000000000000000000000000004000000000000000000000000000000000000000000000000000000000000000080000000000000200000000000000000000000000000000000000000000000000000000000000000000000000000000000000000000000000000000000000000000200000000400000000000000000000000000000000000000000000000000000000000000000000000020000000000000000000000000080000000000000000000000000000000000000000010000002000000002000000000000000000000000000000000000000000010000000000000000000000000000000000000000000000000080000000000",
      "type": "0x2",
      "transactionHash": "0x01578f93e8647905f3789bb3613d9bd123707a24b40aabf6d2a32142ad128235",
      "transactionIndex": "0x28",
      "blockHash": "0x8e23e2f05e15454980079d109b1b120c8c4177e2af481c2bcc6616d7072ffead",
      "blockNumber": "0x2c67e36",
      "gasUsed": "0xc8a3",
      "effectiveGasPrice": "0x10",
      "from": "0xbe6853b544a326cd4faf9e4ba3d4e400e6c3dad9",
      "to": "0x420ca0f9b9b604ce0fd9c18ef134c705e5fa3430",
      "contractAddress": null
    }
  ],
  "libraries": [],
  "pending": [],
  "returns": {},
  "timestamp": 1780777866714,
  "chain": 100,
  "commit": null
}