{
  "transactions": [
    {
      "hash": "0xb498f8f2609abfc63bf290ccba22360a2533a893181fb904a9874a91233b6b5e",
      "transactionType": "CALL",
      "contractName": null,
      "contractAddress": "0x9c58bacc331c9aa871afd802db6379a98e80cedb",
      "function": "transfer(address,uint256)",
      "arguments": [
        "0x4E55FC717b9b107A75a5243fE70a5699f58e0400",
        "20000000000000000"
      ],
      "transaction": {
        "from": "0xbe6853b544a326cd4faf9e4ba3d4e400e6c3dad9",
        "to": "0x9c58bacc331c9aa871afd802db6379a98e80cedb",
        "gas": "0x15530",
        "value": "0x0",
        "input": "0xa9059cbb0000000000000000000000004e55fc717b9b107a75a5243fe70a5699f58e040000000000000000000000000000000000000000000000000000470de4df820000",
        "nonce": "0x4",
        "chainId": "0x64"
      },
      "additionalContracts": [],
      "isFixedGasLimit": false
    }
  ],
  "receipts": [
    {
      "status": "0x1",
      "cumulativeGasUsed": "0x2c12fb",
      "logs": [
        {
          "address": "0x9c58bacc331c9aa871afd802db6379a98e80cedb",
          "topics": [
            "0xddf252ad1be2c89b69c2b068fc378daa952ba7f163c4a11628f55a4df523b3ef",
            "0x000000000000000000000000be6853b544a326cd4faf9e4ba3d4e400e6c3dad9",
            "0x0000000000000000000000004e55fc717b9b107a75a5243fe70a5699f58e0400"
          ],
          "data": "0x00000000000000000000000000000000000000000000000000470de4df820000",
          "blockHash": "0x4043f3beea1c52c92663681c781989f4528f714e48cb5142e56b0727cedb0a0e",
          "blockNumber": "0x2c670bf",
          "blockTimestamp": "0x6a243ec9",
          "transactionHash": "0xb498f8f2609abfc63bf290ccba22360a2533a893181fb904a9874a91233b6b5e",
          "transactionIndex": "0xd",
          "logIndex": "0x5d",
          "removed": false
        }
      ],
      "logsBloom": "0x00000000000000000000000000200000000000000004000000000000000000000000000000000000000000000000000000000000000000000000000000000000000000000000000000000808000000001000000000000000000000000000000000000000000000000000000000000000000000010000000000000010000000000000000000000000000000000000000000000000000000000000000000000000000000000000000000000000000080100000000000000000000000000000000000000002000000400000000000000000000000000000000000000000000000000000000000000000000000000000000000000000000000000000080000000000",
      "type": "0x2",
      "transactionHash": "0xb498f8f2609abfc63bf290ccba22360a2533a893181fb904a9874a91233b6b5e",
      "transactionIndex": "0xd",
      "blockHash": "0x4043f3beea1c52c92663681c781989f4528f714e48cb5142e56b0727cedb0a0e",
      "blockNumber": "0x2c670bf",
      "gasUsed": "0xe94b",
      "effectiveGasPrice": "0x5e8",
      "blobGasUsed": "0x0",
      "from": "0xbe6853b544a326cd4faf9e4ba3d4e400e6c3dad9",
      "to": "0x9c58bacc331c9aa871afd802db6379a98e80cedb",
      "contractAddress": null
    }
  ],
  "libraries": [],
  "pending": [],
  "returns": {},
  "timestamp": 1780760265616,
  "chain": 100,
  "commit": null
}